:020000040800F2
:10000000FFFF012045CC01083D0F00084D0F0008FF
:10001000550F00085D0F0008650F00080000000084
:10002000000000000000000000000000895D0008E2
:100030006D0F000800000000695F00087D0F0008D8
:1000400095CC010895CC010895CC010895CC010808
:1000500095CC010895CC0108BD0F0008CD0F000814
:1000600095CC010895CC010895CC010895CC0108E8
:1000700095CC010895CC010895CC010895CC0108D8
:1000800095CC010895CC010895CC01080000000032
:1000900000000000000000000000000095CC0108F6
:1000A00095CC010895CC010895CC010895CC0108A8
:1000B00095CC010895CC010895CC0108DD0F00080E
:1000C000F10F000895CC010895CC010895CC0108EA
:1000D00095CC010895CC010815100008000000001F
:1000E0000510000895CC010895CC0108000000001F
:1000F00000000000000000000000000095CC010896
:100100000000000095CC0108A90F000895CC01085B
:1001100000000000000000000000000000000000DF
:1001200095CC010895CC010895CC010895CC010827
:1001300095CC010800000000000000000000000055
:10014000000000000000000000000000990F0008FF
:1001500095CC010895CC010895CC01082910000820
:1001600095CC010895CC01080000000000000000BB
:10017000000000000000000000000000000000007F
:100180000000000095CC0108000000000000000005
:0801900095CC010895CC010893
:10019800044B05481B1A062B02D9044B03B1184718
:1001A800704700BF9F0800209C0800200000000046
:1001B80005490648091A891001EBD171491002D086
:1001C800034B03B1184770479C0800209C08002087
:1001D8000000000010B5064C237843B9FFF7D8FF9C
:1001E800044B13B10448AFF300800123237010BD02
:1001F8009C08002000000000B0D4010808B5084B96
:100208001BB108490848AFF300800848036813B9D0
:10021800BDE80840CCE7064B002BF9D09847F7E734
:1002280000000000A0080020B0D401089C080020AD
:100238000000000080B584B000AF78600A23FB603E
:100248004FF47A7004F018FB564B1B78313B062BA1
:100258005FD801A252F823F07D0200088B02000843
:1002680099020008A7020008B5020008C7020008A2
:10027800F10200084C4B4D4A1A604D4B4B4A1A602C
:1002880048E0494B4B4A1A60494B4A4A1A6041E0D8
:10029800454B494A1A60464B484A1A603AE0424B75
:1002A800464A1A60424B444A1A6033E03E4B4FF0CC
:1002B80000021A603E4B4FF000021A602AE03A4BE7
:1002C800D3ED007A9FED3E7A77EE877A364BC3ED11
:1002D800007A374BD3ED007A9FED397A77EE877A3B
:1002E800334BC3ED007A15E02F4BD3ED007A9FED29
:1002F800347A77EEC77A2C4BC3ED007A2C4BD3EDCA
:10030800007A9FED2F7A77EEC77A294BC3ED007AF2
:1003180000E000BF2B4B186807F1080100234FF0DD
:10032800FF3203F0C3FC284B186800234FF0FF325C
:10033800002103F0F3FD254B186807F1080100239D
:100348004FF0FF3203F0B2FC214B186800234FF046
:10035800FF32002103F0E2FD1E4B186807F1080187
:1003680000234FF0FF3203F0A1FC1B4B1868002359
:100378004FF0FF32002103F0D1FD184B186807F148
:10038800080100234FF0FF3203F090FC144B18686B
:1003980000234FF0FF32002103F0C0FD052004F0D8
:1003A8006BFA51E71C0A00201000002000007A4474
:1003B8000C00002000007AC40000FAC30000FA43D1
:1003C8000000FA43D4080020C0080020E4080020F8
:1003D800C4080020D0080020BC080020E008002045
:1003E800C808002080B584B000AF7860134B186847
:1003F80007F1080100234FF0FF3203F08FFD104B87
:100408001B6803F57A730E4A13600E4B1B6803F5DD
:100418007A730C4A13600A4B1B68184601F080F97E
:10042800084B1B68184601F08BF9074B1868002326
:100438000022002103F03AFCD8E700BFD0080020D2
:100448000400002008000020BC08002080B588B007
:1004580000AF7860224B186807F1100100234FF0B5
:10046800FF3203F05BFD07F10803184601F0B6F808
:10047800E02001F05DFE0346FB61E22001F058FE3A
:100488000346BB61BB68B3F5FA6F07DB154B4FF04A
:1004980000021A60144B4FF000021A60FB68B3F5B3
:1004A800FA6F07DB0F4B4FF000021A600E4B4FF04C
:1004B80000021A60FB69142B02DDBB69142B07DCF0
:1004C800084B4FF000021A60074B4FF000021A6009
:1004D800064B186800230022002103F0E7FBB9E768
:1004E800D4080020100000200C000020C0080020C4
:1004F80080B584B000AF78602B4B186800234FF0AC
:10050800FF32002103F00AFD284B1B78313B062BF4
:1005180041D801A252F823F03D0500084B05000818
:1005280059050008670500087505000883050008D7
:1005380091050008002300220A211D4801F05EFEF3
:100548002AE0002300220A211A4801F057FE23E07E
:10055800002300220A21184801F050FE1CE0002365
:1005680000220A21154801F049FE15E00023002267
:100578000A21134801F042FE0EE0002300220A215E
:10058800104801F03BFE07E0002300220A210E4834
:1005980001F034FE00E000BF034B1868002300227E
:1005A800002103F083FBA7E7000000201C0A0020BD
:1005B800C8D40108D4D40108E0D40108ECD4010857
:1005C800F8D4010804D5010810D5010880B58AB00F
:1005D80000AF78603F4B186807F1080100234FF01F
:1005E800FF3203F09BFC01F0EDF903467B623A4BC6
:1005F80093ED007A7B6A07EE903AF8EEE77A77EEA9
:10060800677AC7ED087AD7ED087A9FED347A67EEF6
:10061800877AC7ED077AD7ED087A9FED317A27EE0A
:10062800877A304BD3ED007A77EE277A2D4BC3EDDE
:10063800007A2C4B93ED007AD7ED077A77EE277A7C
:100648009FED297A77EE877AFDEEE77A17EE902A02
:10065800264B1A6001F006FA0346BB61244B93ED62
:10066800007ABB6907EE903AF8EEE77A77EE677A98
:10067800C7ED057AD7ED057A9FED187A67EE877A88
:10068800C7ED047AD7ED057A9FED157A27EE877ABC
:10069800184BD3ED007A77EE277A164BC3ED007A24
:1006A800144B93ED007AD7ED047A77EE277A9FED15
:1006B8000E7A77EE877AFDEEE77A17EE902A0E4BE0
:1006C8001A600E4B186800230022002103F0EEFA8E
:1006D80080E700BFE4080020100000200AD7233C70
:1006E8000C68D33AE80800200000C8420400002043
:1006F8000C000020EC08002008000020C40800209E
:1007080080B58AB000AF78600023BB820023FB82EB
:1007180000233B8200237B820A23BB610023FB84E6
:100728000023BB8400233B62354B186807F108019E
:1007380000234FF0FF3203F0F1FB3B6A0A2B53D141
:100748000023FB6112E007F1140207F110031146C0
:10075800184601F01DFB3A8AFB8C1344FB847A8A05
:10076800BB8C1344BB84FB690133FB61FA69BB6929
:100778009A42E8DBFA8CBB6992FBF3F3FB84BA8CF0
:10078800BB6992FBF3F3BB84BB8A0A2B2AD9FB8A89
:10079800052B27D9FB8C9F2B06D801F097FA034627
:1007A8000133184601F06EFAFB8CA02B06D901F034
:1007B8008DFA0346013B184601F064FABB8C642BA2
:1007C80006D901F077FA03460133184601F044FAD6
:1007D800BB8C632B06D801F06DFA0346013B184623
:1007E80001F03AFA00233B623B6A01333B62054B56
:1007F800186800230022002103F058FA94E700BF8C
:10080800E0080020C808002080B584B004AF05F0D7
:10081800ADFC00F02FFE01F0F5FF02F01FF801F02B
:100828006FFD02F0B7FF01F05DFA00F0A5FE00F0E1
:1008380099FF00F017FF01F0B1F94FF47A7005F055
:1008480029FD4FF47A7000F06BFF4FF47A7000F0D6
:1008580077FF0023039300230293002301930623C9
:10086800009300234FF400728B498C4803F0DEFE9E
:10087800002303930023029300230193052300938D
:1008880000234FF400728649864803F0CFFE002308
:10089800039300230293002301930423009300236E
:1008A8004FF400728049814803F0C0FE002303938F
:1008B80000230293002301930323009300234FF4A2
:1008C80000727B497B4803F0B1FE002303930023A9
:1008D8000293002301930223009300234FF4007234
:1008E8007549764803F0A2FE002303930023029380
:1008F800002301930123009300234FF400727049F1
:10090800704803F093FE03220021012003F0BEF893
:1009180002466D4B1A606C4B1B68002B06D06A4B65
:10092800186800230022002103F0C0F9664B1868FC
:1009380000234FF0FF32002103F0F0FA03220021D8
:10094800012003F0A3F80246604B1A605F4B1B6856
:10095800002B06D05D4B186800230022002103F00D
:10096800A5F95A4B186800234FF0FF32002103F015
:10097800D5FA03220021012003F088F80246544BDF
:100988001A60534B1B68002B06D0514B1868002384
:100998000022002103F08AF94D4B186800234FF01C
:1009A800FF32002103F0BAFA03220021012003F0EC
:1009B8006DF80246474B1A60464B1B68002B06D061
:1009C800444B186800230022002103F06FF9414BC3
:1009D800186800234FF0FF32002103F09FFA03222A
:1009E8000021012003F052F802463B4B1A603A4BB3
:1009F8001B68002B06D0384B186800230022002102
:100A080003F054F9344B186800234FF0FF320021EB
:100A180003F084FA03220021012003F037F802468C
:100A28002E4B1A602D4B1B68002B06D02B4B1868D9
:100A380000230022002103F039F9284B186800230D
:100A48004FF0FF32002103F069FA0022082101204B
:100A580003F01CF80246224B1A60002208210120EC
:100A680003F014F802461F4B1A60002208210120E7
:100A780003F00CF802461C4B1A60002208210120E2
:100A880003F004F80246194B1A6004F047F90023F2
:100A98001846BD4680BD00BF1CD501083D020008B0
:100AA80030D501085504000840D50108D5050008CF
:100AB80054D50108ED03000860D5010809070008AE
:100AC8006CD50108F9040008B8080020C008002007
:100AD800C4080020BC080020C8080020000000202E
:100AE800D4080020E4080020D0080020E0080020F6
:100AF80080B483B000AF78603960FEE780B400AF9F
:100B080000BFBD465DF8047B704700BF80B400AFEE
:100B180000BFBD465DF8047B704700BF80B500AFDD
:100B2800154A154B1B6B43F001031363124A124B12
:100B38001B6B43F0020313630F4A0F4B1B6B43F00D
:100B48000403136300F01AF800F046F800F06CF89C
:100B580000F0A2F800F096F900F0F6F800F0D4F8EA
:100B680000F05EF900F0A2F900F0C0F900F002F917
:100B780000F020F900BF80BD0038024080B586B083
:100B880000AF134A124B1B6B43F001031363104A67
:100B98000F4B1B6C43F4003313640C237B6002235C
:100BA800BB600123FB6000233B6107237B613B1D86
:100BB8001946084806F0E2FA00220921262006F024
:100BC80087FF262006F0A0FF00BF1837BD4680BD6E
:100BD800003802400000024080B586B000AF104ADD
:100BE8000F4B5B6C43F020035364C0237B600223EC
:100BF800BB600123FB6000233B6108237B613B1D35
:100C08001946084806F0BAFA00220A21472006F0D9
:100C18005FFF472006F078FF00BF1837BD4680BD4C
:100C2800003802400008024080B586B000AF164A7E
:100C3800154B5B6C43F0010353644FF440737B60C6
:100C48000223BB600123FB6001233B6101237B611D
:100C58003B1D19460D4806F091FA02237B600C4BA8
:100C6800BB600023FB603B1D19460A4806F086FA64
:100C780000220721072006F02BFF072006F044FF7B
:100C880000BF1837BD4680BD003802400000024052
:100C9800000021100008024080B586B000AF164A57
:100CA800154B1B6C43F00103136403237B60022381
:100CB800BB600123FB6001233B6101237B613B1D7A
:100CC80019460E4806F05AFA01237B600C4BBB60AC
:100CD8000023FB603B1D19460A4806F04FFA002224
:100CE8000621062006F0F4FE062006F00DFF00BFE0
:100CF8001837BD4680BD00BF0038024000000240E2
:100D0800000021100004024080B586B000AF4FF407
:100D180000537B600A4BBB600023FB603B1D1946F8
:100D2800084806F02BFA00220521282006F0D0FEFC
:100D3800282006F0E9FE00BF1837BD4680BD00BF79
:100D4800000021100008024080B586B000AF2023C3
:100D58007B600123BB600123FB6002233B613B1DD9
:100D68001946034806F00AFA00BF1837BD4680BD89
:100D78000000024080B586B000AF0C4A0B4B1B6CDC
:100D880043F00203136430237B600223BB6001231A
:100D9800FB6001233B6102237B613B1D194604482C
:100DA80006F0ECF900BF1837BD4680BD0038024098
:100DB8000004024080B586B000AF164A154B1B6C84
:100DC80043F004031364C0237B600223BB60012348
:100DD800FB6001233B6102237B613B1D19460E48E2
:100DE80006F0CCF94FF400437B600123BB6001237C
:100DF800FB6002233B613B1D1946084806F0BEF91B
:100E080001224FF40041054806F012FC00BF1837D4
:100E1800BD4680BD00380240000402400000024088
:100E280080B586B000AF154A144B1B6C43F4001311
:100E380013644FF440737B601223BB600023FB6094
:100E480003233B6104237B613B1D19460C4806F0D4
:100E580095F900220221202006F03AFE202006F013
:100E680053FE00220B211F2006F032FE1F2006F041
:100E78004BFE00BF1837BD4680BD00BF003802409A
:100E88000004024080B500AF074A074B1B6C43F0D3
:100E98000803136400220C21322006F019FE3220C8
:100EA80006F032FE00BF80BD0038024080B586B033
:100EB80000AF0C4A0B4B5B6C43F480535364F02334
:100EC8007B600223BB600123FB6003233B61052396
:100ED8007B613B1D1946044806F050F900BF1837DE
:100EE800BD4680BD003802400000024080B586B093
:100EF80000AF0A4A094B5B6C43F4807353640C23BC
:100F08007B600323BB600023FB603B1D194604483C
:100F180006F034F900BF1837BD4680BD00380240DE
:100F28000008024080B400AF00BFBD465DF8047BF6
:100F3800704700BF80B400AF00BFBD465DF8047BBA
:100F4800704700BF80B400AFFEE700BF80B400AFB9
:100F5800FEE700BF80B400AFFEE700BF80B400AF7B
:100F6800FEE700BF80B400AF00BFBD465DF8047B5C
:100F7800704700BF80B500AF04F094FD0346012B15
:100F880001D005F01BF805F06BF900BF80BD00BF6C
:100F980080B400AF00BFBD465DF8047B704700BF5A
:100FA80080B500AF024811F0DFFF00BF80BD00BF71
:100FB800105D002080B500AF012006F08BFB00BF5C
:100FC80080BD00BF80B500AF022006F083FB00BFE4
:100FD80080BD00BF80B500AF02481AF00FFA00BF0D
:100FE80080BD00BFA05E002080B500AF02481AF0A7
:100FF80077FB00BF80BD00BFA05E002080B500AFBA
:101008004FF4005006F066FB00BF80BD80B500AF0E
:10101800024807F0B3FB00BF80BD00BFD05C0020D2
:1010280080B500AF024807F0A9FB00BF80BD00BF34
:10103800905C002080B400AF164A164BD3F8883075
:1010480043F47003C2F88830134A134B1B6843F00B
:1010580001031360104B00229A600F4A0E4B1B6865
:1010680023F0847323F4803313600B4B0B4A5A60CC
:10107800094A094B1B6823F480231360064B00229E
:10108800DA60044B4FF000629A6000BFBD465DF81D
:10109800047B704700ED00E0003802401030002467
:1010A80080B487B000AF00233B6100237B6102233B
:1010B800FB600023BB6002237B60334B9B6803F01B
:1010C8000C033B613B69042B07D0082B09D0002B8C
:1010D8003FD12E4B2E4A1A603FE02C4B2D4A1A6006
:1010E8003BE0294B5B6803F480039B0DBB60264BF8
:1010F8005B6803F03F037B60BB68002B0DD0254A7B
:101108007B68B2FBF3F2204B596847F6C0730B407B
:101118009B0903FB02F37B610CE01D4A7B68B2FB71
:10112800F3F2194B596847F6C0730B409B0903FB50
:1011380002F37B61144B5B6803F440331B0C0133EF
:101148005B00FB607A69FB68B2FBF3F30F4A13603C
:1011580003E00E4B0E4A1A6000BF0B4B9B6803F06E
:10116800F0031B090C4AD35CDBB23B61074B1A68DE
:101178003B6922FA03F3054A136000BF1C37BD46DA
:101188005DF8047B704700BF00380240240000204F
:101198000024F40000127A002800002080B485B0F2
:1011A80000AF7860154B1B68002B02D1134B144A13
:1011B8001A60124B1B68FB60124B1B681B68BB60F4
:1011C800BB68A3F50073BB600C4B1A687B681A44B4
:1011D800BB689A4205D90C4B0C221A604FF0FF33BA
:1011E80006E0064B1A687B681344044A1360FB68E0
:1011F80018461437BD465DF8047B7047F008002098
:10120800785F002008ED00E0745F002080B483B0B0
:1012180000AF786039603B68002B05D03B6800223E
:101228001A603B6800225A60002318460C37BD46F6
:101238005DF8047B704700BF80B400AF00BFBD46B7
:101248005DF8047B704700BF80B400AF01231846E7
:10125800BD465DF8047B704780B483B000AF78600A
:101268003960054B16221A604FF0FF3318460C37C9
:10127800BD465DF8047B7047745F002080B582B07E
:1012880000AF78604FF0FF317868FFF7E5FFFEE7C1
:1012980080B586B000AFF860B9607A6000237B61E2
:1012A80009E0BB685A1CBA601B781846AFF3008087
:1012B8007B6901337B617A697B689A42F1DB7B68E1
:1012C80018461837BD4680BD80B483B000AF78603B
:1012D8004FF0FF3318460C37BD465DF8047B704766
:1012E80080B483B000AF786039603B684FF4005237
:1012F8005A60002318460C37BD465DF8047B7047DA
:1013080080B483B000AF7860012318460C37BD461F
:101318005DF8047B704700BF80B485B000AFF8600B
:10132800B9607A60002318461437BD465DF8047B1F
:10133800704700BF90B587B000AFF860B9607A60B9
:1013480000237B610AE0BC68631CBB60AFF30080CC
:101358000346DBB223707B6901337B617A697B6862
:101368009A42F0DB7B6818461C37BD4690BD00BF2B
:101378000EB480B482B000AF78604FF0FF331846E7
:101388000837BD465DF8047B03B0704780B483B06E
:1013980000AF7860054B0A221A604FF0FF331846F9
:1013A8000C37BD465DF8047B704700BF745F0020B2
:1013B80080B483B000AF7860054B02221A604FF00A
:1013C800FF3318460C37BD465DF8047B704700BFF5
:1013D800745F002080B483B000AF78604FF0FF33B3
:1013E80018460C37BD465DF8047B704780B483B05F
:1013F80000AF786039603B684FF400525A600023B0
:1014080018460C37BD465DF8047B704780B483B03E
:1014180000AF78603960054B1F221A604FF0FF3328
:1014280018460C37BD465DF8047B7047745F002092
:1014380080B400AF044B0B221A604FF0FF331846FC
:10144800BD465DF8047B7047745F002080B485B0AA
:1014580000AFF860B9607A60054B0C221A604FF053
:10146800FF3318461437BD465DF8047B704700BF4C
:10147800745F002080B592B000AF1F4A1E4B1B6CF2
:1014880043F0805313641D4A1C4B1B6823F44043EC
:1014980043F40043136002233B600123FB601023E5
:1014A8003B610223BB610023FB6110233B624FF4C5
:1014B800A8737B620423BB620723FB623B46184682
:1014C80005F01EF8034687F847300F233B630223D5
:1014D8007B630023BB634FF48053FB6300233B64AF
:1014E80007F130030221184605F062FA97F84730F1
:1014F80018464837BD4680BD00380240007000409D
:1015080080B582B000AF114B1B68114AA2FB0323C0
:101518005B0B013B7B600F4B0F4A1A600D4B40F28F
:10152800E732DA600B4A7B6853600A4B00221A6183
:10153800084B00229A6007480FF07CFD05480FF021
:101548002DFE00BF0837BD4680BD00BF2400002027
:101558005917B7D1105D0020000C004080B582B04B
:1015680000AF78602021034806F07AF800BF0837FA
:10157800BD4680BD0000024080B500AF154B164A3D
:101588001A60144B00225A60124B0022DA60114B89
:1015980000229A600F4B00229A610E4B00221A61BA
:1015A8000C4B02221A620B4B00225A62094B022290
:1015B8009A62084B0022DA62064B00221A63054B36
:1015C8000022DA61034B00225A61024814F0A8FD98
:1015D80000BF80BD905D00200020014090B583B021
:1015E80000AF78601D4B0C221A601C4B01225A6018
:1015F8001A4B03229A601949194815F09BF91848A3
:1016080014F0E8FD0A21164814F068FE144815F095
:101618005BF903461A467B681A60104B0D221A6064
:101628000E4B01225A600D4B03229A600B490C485D
:1016380015F080F90A4814F0CDFD0A21084814F085
:101648004DFE7B681C1D064815F03EF903462360D5
:10165800002318460C37BD4690BD00BFD45D00205E
:10166800905D002080B582B000AF00237B60264BE0
:101678001B68264AA2FB03239B0D013B7B60244B7E
:10168800244A1A60224BC722DA60214A7B685360D9
:101698001F4B00221A611E4B00229A601C480FF053
:1016A800C9FC1D4B60221A601B4B05225A601A4B5D
:1016B80000229A60184B00221A6100221649144829
:1016C80011F056FE04221449114811F051FE104B36
:1016D8001B6864225A630E4B1B683433043364223C
:1016E8001A6000210A4810F0C9F90421084810F0CE
:1016F800C5F900224FF40041084805F099FF00BFE2
:101708000837BD4680BD00BF240000206BCA5F6B50
:10171800F4080020000800403009002000000240C2
:1017280080B483B000AF7860044B1B687A685A6352
:1017380000BF0C37BD465DF8047B7047F4080020F5
:1017480080B483B000AF7860054B1B683433043332
:101758007A681A6000BF0C37BD465DF8047B704795
:10176800F408002080B58AB000AF354B354A1A60BE
:10177800334B00225A60324B00229A60304B41F2C0
:101788008832DA602E4B00221A6103237B60002323
:10179800BB600123FB6008233B610F237B610023AF
:1017A800BB610123FB6108233B620F237B623B1D66
:1017B8001946234811F082F8214B1B6800225A620F
:1017C80000211F4811F050F904211D4811F04CF96F
:1017D8001D4B4FF080421A601B4B00225A601A4B77
:1017E80000229A60184B41F28832DA60164B0022C8
:1017F8001A6103237B600023BB600123FB6008237D
:101808003B610F237B610023BB610123FB6108233C
:101818003B620F237B623B1D19460B4811F04EF8C3
:10182800094B1B6800225A620021074811F01CF975
:101838000421054811F018F900BF2837BD4680BDBE
:10184800645E002000000140285E002080B485B05E
:1018580000AF78600023FB600C4B5B6AFB607B6821
:1018680004337A6812681A60FB6841F69B1202FB1F
:1018780003F3074AA2FB03239B091A467B681A60F5
:1018880000BF1437BD465DF8047B70470000014077
:10189800D34D621080B485B000AF78600023FB6040
:1018A8004FF080435B6AFB607B6804337A68126898
:1018B8001A60FB6841F69B1202FB03F3064AA2FB7F
:1018C80003239B091A467B681A6000BF1437BD467C
:1018D8005DF8047B704700BFD34D621080B483B0BD
:1018E80000AF0023FB800C4B5B6AFB800B4B1B6833
:1018F8001B6803F01003002B06D0FB88A3F59C534C
:10190800083B9BB29BB200E0FB881BB218460C3721
:10191800BD465DF8047B704700000140645E00200E
:1019280080B483B000AF0023FB804FF080435B6A34
:10193800FB800B4B1B681B6803F01003002B06D0C1
:10194800FB88A3F59C53083B9BB29BB200E0FB8845
:101958001BB218460C37BD465DF8047B704700BFC4
:10196800285E002090B583B000AF00237B60084B51
:101978001B6841F2883202FB03F4FFF7AFFF03460E
:1019880023447B607B6818460C37BD4690BD00BF7A
:101998004C09002090B583B000AF00237B60084B52
:1019A8001B6841F2883202FB03F4FFF7B9FF0346D4
:1019B80023447B607B6818460C37BD4690BD00BF4A
:1019C8005009002080B500AF2348FFF73FFF224BA6
:1019D8001B689AB2204B5B689BB2D31A9BB29AB22F
:1019E8001E4B1A801D4B1B881BB2002B0FDB1B4B99
:1019F8001B881BB2B3F5804F18DB184B1B889BB2B2
:101A0800A3F500439BB29AB2144B1A800EE0134B15
:101A18001B881BB213F5804F08DA104B1B889BB24A
:101A2800A3F500439BB29AB20C4B1A800B4B1B8850
:101A38001BB24EF6602202FB03F3094A82FB031233
:101A48001214DB17D31A9AB2044B1A80034B1B8863
:101A58001BB2184680BD00BF540900205C09002055
:101A68003533676680B500AF2348FFF713FF224B75
:101A78001B689AB2204B5B689BB2D31A9BB29AB28E
:101A88001E4B1A801D4B1B881BB2002B0FDB1B4BF8
:101A98001B881BB2B3F5804F18DB184B1B889BB211
:101AA800A3F500439BB29AB2144B1A800EE0134B75
:101AB8001B881BB213F5804F08DA104B1B889BB2AA
:101AC800A3F500439BB29AB20C4B1A800B4B1B88B0
:101AD8001BB24EF6602202FB03F3094A82FB031293
:101AE8001214DB17D31A9AB2044B1A80034B1B88C3
:101AF8001BB2184680BD00BF60090020680900209D
:101B08003533676680B500AF0F4B1B681B6803F061
:101B18001003002B05D00D4B1B68013B0B4A1360CB
:101B280004E00A4B1B680133084A1360064B1B6824
:101B380000225A620021044810F096FF042102484E
:101B480010F092FF00BF80BD645E00204C090020A9
:101B580080B500AF0F4B1B681B6803F01003002B08
:101B680005D00D4B1B68013B0B4A136004E00A4B80
:101B78001B680133084A1360064B1B6800225A622F
:101B88000021044810F070FF0421024810F06CFF97
:101B980000BF80BD285E00205009002080B582B0BB
:101BA80000AF00237B60254B1B681B09244AA2FB5E
:101BB8000323DB09013B7B60224B234A1A60214B3C
:101BC80040F2E732DA601F4A7B6853601D4B0022FF
:101BD8001A611C4B00229A601A480FF02BFA1B4B13
:101BE80060221A60194B05225A60184B02229A602B
:101BF800164B00221A6100221449124811F0B8FB52
:101C0800042212490F4811F0B3FB0E4B1B68104A0F
:101C180012685A630B4B1B68343304330D4A12683D
:101C28001A60002107480FF029FF042105480FF02A
:101C380025FF00BF0837BD4680BD00BF2400002037
:101C4800C55A7C0A6C09002000040040A80900203D
:101C58003C0000203800002080B483B000AF7860DA
:101C6800064A7B681360064B1B687A685A6300BF94
:101C78000C37BD465DF8047B704700BF3C00002070
:101C88006C09002080B483B000AF7860074A7B6895
:101C98001360074B1B68343304337A681A6000BF3B
:101CA8000C37BD465DF8047B704700BF3800002044
:101CB8006C09002080B400AF034B1B681846BD4672
:101CC8005DF8047B704700BF3C00002080B400AF83
:101CD800034B1B681846BD465DF8047B704700BF80
:101CE8003800002080B500AF4FF496601AF0D0FF9E
:101CF80003461A46014B1A6000BF80BD100A002037
:101D080080B500AFC8226421C82000F0E1F90120A5
:101D180000F02AF9174B1B681B881946164801F072
:101D2800A5F9144B1B685B881946144801F09EF905
:101D3800104B1B689B881946114801F097F90D4B09
:101D48001B68DB8819460F4801F090F9094B1B689E
:101D58001B8919460C4801F089F9064B1B685B89F9
:101D680019460A4801F082F94FF4FA7004F092FA21
:101D7800C8E700BF100A002078D501088CD50108F3
:101D880098D50108A4D50108B4D50108C4D501081F
:101D980080B582B000AF78603960012000F0E4F8C7
:101DA8000C4B1B685A887B681A807B680233094A87
:101DB800126892881A80074B1B68DA883B681A8079
:101DC8003B680233034A126812891A8000BF083739
:101DD800BD4680BD100A002080B582B000AF002348
:101DE8007B711C4B1B78002B1CD05B2001F004FD81
:101DF8000346FB80184B1B785A1CD1B2164A117047
:101E08001A46164B9B5C7B71124B1B78013BDAB26E
:101E1800104B1A70104B1B78402B08D10E4B002228
:101E28001A7004E05A2001F0E7FC0346FB80FB88A7
:101E38001B02FB807B79184601F0DEFC03463B71F0
:101E48003B799AB2FB881343FB80FB881846083716
:101E5800BD4680BD040A0020060A0020C4090020EF
:101E680080B485B000AF786039601B4B1B781A4688
:101E78003B681344402B02DD4FF0FF3326E03B68FC
:101E8800DAB2154B1B781344DAB2134B1A700023DD
:101E9800FB6016E0114B1B785A1CD1B20F4A117027
:101EA8001946FB687A6813441A780D4B5A540B4B41
:101EB8001B78402B02D1094B00221A70FB680133B2
:101EC800FB60FA683B689A42E4DB3B6818461437C3
:101ED800BD465DF8047B7047040A0020050A00200F
:101EE800C409002080B582B000AF4FF6FF73FB80B5
:101EF800FFF772FF0346BB80BB88002B04D1FB8829
:101F0800002B01D1002328E0BB884AF655229342D2
:101F180009D1FB884AF65522934204D1114B00227D
:101F28001A70012319E0BB884AF65622934209D158
:101F3800FB884AF65522934204D10A4B01221A70B3
:101F480001230AE0BB8845F2AA52934202D100203D
:101F580001F052FCBB88FB80CAE718460837BD462B
:101F680080BD00BF0C0A002080B586B000AF0346D4
:101F7800FB80484B1B68002B06D1FFF7B3FF0346D5
:101F8800002B04D1002380E0424B00221A6000237A
:101F9800BB8272E0FFF720FF03463B823B8A4AF68A
:101FA8005522934207D13B4B01221A603A4B00223B
:101FB8001A70BB8A69E03B8A4AF65622934207D1D7
:101FC800344B01221A60344B01221A70BB8A5CE040
:101FD8003B8A002B01D1BB8A57E0304B1968BA8A7B
:101FE80013465B0013449B000B44FB600023FB7506
:101FF80000237B821BE0284B1B78002B06D1FB7D3E
:10200800042B03D9FB6800225A8113E0FFF7E4FE92
:1020180003467B817A8A7B8913447B82FB7D5B0044
:10202800FA6813447A891A80FB7D0133FB75FB7DBE
:10203800052BE0D93A8A7B8A9A4203D1BB8A0133BD
:10204800BB8202E0164801F011F8FFF7C5FE03460F
:102058007B817B894AF65522934203D10E4B00229D
:102068001A700AE07B894AF65622934203D10A4B3A
:1020780001221A7001E0BB8A07E0BA8AFB889A42FB
:1020880002D2BB8A632B85D9002318461837BD4670
:1020980080BD00BF080A00200C0A0020100A00209A
:1020A800D4D5010880B584B000AF0346FB71002386
:1020B8003B73FE237B73FB79BB7307F10C0303218E
:1020C8001846FFF7CDFE034618461037BD4680BDBB
:1020D80080B584B000AF0346FB710B46BB71134655
:1020E8007B7100233B72FD237B72FB79BB72BB794A
:1020F800FB727B793B7307F1080305211846FFF74C
:10210800AFFE034618461037BD4680BD80B584B083
:1021180000AF0346FB805123FB7307F10F02F888D9
:102128000123002100F07CF900BF1037BD4680BDB7
:1021380080B584B000AF0346FB8007F10D02F88834
:102148000123022100F03AF907F10C02F888012373
:10215800032100F033F97B7B9BB21B029AB23B7BD5
:102168009BB21344FB81FB8918461037BD4680BDDE
:1021780080B582B000AF6023FB71FB1D01221946B8
:10218800602000F0E7F8642004F084F800F006F816
:10219800002318460837BD4680BD00BF80B582B011
:1021A80000AF0023FB71FA1D01232021602000F0FD
:1021B80005F9FB7918460837BD4680BD80B582B061
:1021C80000AF0346FB71FA1D01236221602000F075
:1021D80027F900BF0837BD4680BD00BF80B582B073
:1021E80000AF0023FB71FA1D01230521602000F0D8
:1021F800E5F8FB7918460837BD4680BD80B586B03E
:1022080000AF7860084611461A460346FB700B4635
:10221800BB7013467B7000233B61BB78FB757B78F2
:10222800BB7500233B6123E0BB7D3B73FB7D7B7368
:102238003B697A6813441B78BB7307F10C020323CC
:102248006121602000F0ECF8FB7D0133FB75FB7D1C
:102258000F2B07D90023FB75BB7D0133BB75BB7DF5
:10226800022B0CD8142002F007FB3B6901333B61B9
:10227800FA783B699A42D7DCFFF790FF00E000BF8D
:102288001837BD4680BD00BFB0B588B000AF002389
:10229800FB770023BB77174B3C1D1D460FCD0FC4A2
:1022A80095E8070003C42280FFF778FF0346FB7711
:1022B800FB7F1946104800F00FFDFFF78FFF03461C
:1022C800BB77BB7F19460D4800F006FD381D00237B
:1022D80000221A21FFF792FFC820FFF76FFF381D71
:1022E800002300221A21FFF789FF00BF2037BD46CF
:1022F800B0BD00BF0CD60108E8D50108FCD501081F
:1023080080B500AF104B114A1A600F4B104A5A6043
:102318000D4B00229A600C4B0222DA600A4B4FF4F4
:1023280080421A61084B00225A61074BFF229A61CA
:10233800054B0022DA61044B00221A62024817F0AA
:10234800E5F900BF80BD00BFA05E0020005400403A
:10235800A086010080B588B002AF0346B9607A60F4
:10236800FB817B689AB2F989642300931346BA68A3
:10237800044817F0DDFA03467B617B691846183775
:10238800BD4680BDA05E002080B588B002AF034680
:10239800B9607A60FB817B689AB2F98964230093FB
:1023A8001346BA68044817F077FB03467B617B69DC
:1023B80018461837BD4680BDA05E002080B588B09D
:1023C80002AFBA607B600346FB810B467B737B7B65
:1023D800FB7407F11302F9896423009301230F4862
:1023E80017F0A6FA03467B617B69002B0FD17B6847
:1023F80098B27B68642202FB03F3F98900930346D1
:10240800BA68064817F048FB03467B6100E000BF46
:102418007B6918461837BD4680BD00BFA05E002006
:1024280080B58CB002AFBA607B600346FB810B4677
:102438007B737B7B3B7507F1140301337A68B968BA
:1024480018461AF075FA7B689BB2013398B207F107
:102458001402F989642300930346054817F068FAC3
:1024680003467B627B6A18462837BD4680BD00BF9D
:10247800A05E002080B584B000AF0346FB800B4609
:102488007B7113463B717B793B733B797B7300BF50
:1024980007F10C02F9880223084817F00BFE0346DF
:1024A800002BF5D100BF054819F03EFA0346012B71
:1024B800F9D100BF1037BD4680BD00BFA05E002027
:1024C80080B584B000AFBA607B600346FB810B46E1
:1024D8007B7300BF07F10D02F9890123114817F03A
:1024E800E9FD0346002BF5D100BF0E4819F01CFA90
:1024F8000346012BF9D100BF7B689BB2F989BA6802
:10250800084817F049FE0346002BF5D100BF0548DF
:1025180019F00AFA0346012BF9D100BF1037BD465E
:1025280080BD00BFA05E002080B586B002AF034624
:10253800FB800B46BB801346FB70BB881B0A9BB213
:10254800DBB23B72BB88DBB27B72FB78BB7207F1F4
:102558000802F988642300930323054817F0E8F973
:102568000346FB60FB6818461037BD4680BD00BFB8
:10257800A05E002080B586B002AF0346FB800B4604
:10258800BB8013467B80BB881B0A9BB2DBB23B72C5
:10259800BB88DBB27B727B881B0A9BB2DBB2BB7247
:1025A8007B88DBB2FB7207F10802F9886423009389
:1025B8000423054817F0BCF90346FB60FB6818467E
:1025C8001037BD4680BD00BFA05E002080B586B034
:1025D80002AF03463A60FB800B46BB80BB881B0AF0
:1025E8009BB2DBB23B72BB88DBB27B723B681B0ED3
:1025F800DBB2BB723B681B0CDBB2FB723B681B0A8D
:10260800DBB23B733B68DBB27B7307F10802F988E6
:10261800642300930623054817F08AF90346FB60F4
:10262800FB6818461037BD4680BD00BFA05E00207D
:1026380080B586B002AF03463A60FB800B46BB808C
:10264800BB881B0A9BB2DBB23B72BB88DBB27B72D6
:1026580007F10802F9886423009302230E4817F053
:1026680067F90346FB60FB68002B10D107F10802ED
:10267800F988642300930123074817F00DFA0346ED
:10268800FB60FB68002B02D13A7A3B681A70FB6842
:1026980018461037BD4680BDA05E002080B586B0C4
:1026A80002AF03463A60FB800B46BB80BB881B0A1F
:1026B8009BB2DBB23B72BB88DBB27B7207F10802CC
:1026C800F988642300930223124817F031F903466E
:1026D800FB60FB68002B17D107F10802F988642317
:1026E800009302230B4817F0D7F90346FB60FB68F9
:1026F800002B09D13B7A1B029AB27B7A9BB2134317
:102708009BB29AB23B681A80FB6818461037BD46E0
:1027180080BD00BFA05E002080B586B002AF034632
:102728003A60FB800B46BB80BB881B0A9BB2DBB2BE
:102738003B72BB88DBB27B7207F10802F98864231D
:1027480000930223134817F0F3F80346FB60FB6875
:10275800002B19D107F10802F98864230093042398
:102768000C4817F099F90346FB60FB68002B0BD166
:102778003B7A1A067B7A1B041A43BB7A1B02134363
:10278800FA7A1A433B681A60FB6818461037BD4648
:1027980080BD00BFA05E002080B588B002AFBA60DF
:1027A8007B600346FB810B46BB81BB891B0A9BB23E
:1027B800DBB23B74BB89DBB27B7407F11002F98989
:1027C8006423009302230E4817F0B2F803467B6196
:1027D8007B69002B0ED17B6898B27B68642202FB70
:1027E80003F3F98900930346BA68054817F054F9CA
:1027F80003467B617B6918461837BD4680BD00BF1C
:10280800A05E002080B500AF114B124A1A60104B31
:102818004FF4E1325A600E4B00229A600C4B0022B2
:10282800DA600B4B00221A61094B00229A61084BAF
:102838000C225A61064B0022DA61054805F016FAA7
:1028480001220549024805F067FD00BF80BD00BFB1
:10285800D05C0020004400401C0A002080B500AF76
:10286800114B124A1A60104B4FF416525A600E4B15
:1028780000229A600C4B0022DA600B4B00221A618E
:10288800094B00229A61084B0C225A61064B002220
:10289800DA61054805F0EAF901220549024805F020
:1028A8003BFD00BF80BD00BF905C002000140140CC
:1028B8001C0A002080B582B000AF786039603B68A0
:1028C8009AB24FF6FF737968034805F05DFB00BFC5
:1028D8000837BD4680BD00BF905C002080B582B03F
:1028E80000AF7860391D4FF6FF730122034805F0E9
:1028F8004BFB7B6818460837BD4680BD905C0020BE
:1029080080B582B000AF7860391D4FF6FF730122A1
:10291800034805F039FB002318460837BD4680BD3B
:10292800D05C002080B582B000AF7860391D4FF6CA
:10293800FF730122034805F027FB002318460837D8
:10294800BD4680BD905C002080B582B000AF786045
:1029580001220449044805F0DFFC00BF0837BD46E2
:1029680080BD00BF1C0A0020905C002080B489B0A4
:1029780000AFF860B9607A603B60FB687B61FB6818
:102988005A1CFA60BA687968B2FBF1F1786800FB02
:1029980001F1521A36498A5C1A70BA687B68B2FB30
:1029A800F3F3BB60BB68002BE9D1FB6800221A7007
:1029B800FA687B69D31A3B610023FB611AE07A69E4
:1029C800FB6913441B78FB767A69FB691344396900
:1029D800FA698A1A013A79690A4412781A703A69C6
:1029E800FB69D31A013B7A691344FA7E1A70FB69B2
:1029F8000133FB613B695A08FB699A42DFD83A699F
:102A08003B689A422DD23B69FB610EE0FA693B684C
:102A18001A443B69D31A7A6913447969FA690A44F2
:102A280012781A70FB69013BFB61FB69002BEDD042
:102A3800BB6A002B02D02023FB7601E03023FB7613
:102A48000023FB6107E07A69FB691344FA7E1A7078
:102A5800FB690133FB613A683B69D21AFB699A4208
:102A6800F1D800BF2437BD465DF8047B704700BF2E
:102A78004000002080B487B000AF78603960002340
:102A88007B617B685A1C7A601B78FB732EE0FB7BAA
:102A98002F2B06D9FB7B392B03D8FB7B303B3B61C3
:102AA80018E03B68102B09D1FB7B402B06D9FB7B38
:102AB800462B03D8FB7B373B3B610BE03B68102B75
:102AC80017D1FB7B602B14D9FB7B662B11D8FB7BC2
:102AD800573B3B613B687A6902FB03F23B6913444D
:102AE8007B617B685A1C7A601B78FB73FB7B002B2D
:102AF800CDD17B6918461C37BD465DF8047B70470D
:102B080080B4A9B000AF786087ED000A4F4BC7F8D2
:102B18008C303B68C7F89C30D7ED007AFDEEE77A39
:102B280017EE903AC7F894300023C7F8983014E0AD
:102B3800D7ED277AB2EE047A67EE877AC7ED277A5F
:102B4800D7ED277AFDEEE77A17EE903AC7F894307A
:102B5800D7F898300133C7F89830D7ED277AB2EE16
:102B6800047A27EE877AD7F8943007EE903AF8EE91
:102B7800E77AF2EE046A67EEA67AB4EE677AF1EEC7
:102B880010FAD5D10023C7F89030D7F89420304BED
:102B980083FB02139910D317C91A0B469B000B44E9
:102BA8005B00D11A0A46D7F890309B0007F1A001C4
:102BB8000B4443F8942CD7F89430254A82FB03122F
:102BC8009210DB17D31AC7F89430D7F89030013336
:102BD800C7F89030D7F89430002BD6DC1AE07A6822
:102BE800531C7B60D7F890309B0007F1A0010B4481
:102BF80053F8943CD7F88C100B441B781370D7F813
:102C08009020D7F898309A4204D17B685A1C7A6091
:102C18002E221A70D7F89030013BC7F89030D7F8B9
:102C28009030002BDBDAD7F89830002B04D17B6882
:102C38005A1C7A6030221A707B6800221A7000BF12
:102C4800A437BD465DF8047B704700BF28D601084D
:102C58006766666680B582B000AF786007E07B681B
:102C68001B781846FFF73AFE7B6801337B607B6868
:102C78001B78002BF3D100BF0837BD4680BD00BFCD
:102C880080B582B000AF786007E07B681B78184693
:102C9800FFF736FE7B6801337B607B681B78002B6F
:102CA800F3D100BF0837BD4680BD00BF80B582B0F4
:102CB80000AF786007E07B681B781846FFF732FEA4
:102CC8007B6801337B607B681B78002BF3D100BFE6
:102CD8000837BD4680BD00BF0FB490B597B002AFAE
:102CE80007F164037B63B4E13B6E1B78252B40F04E
:102CF800A88100237B6401233B643B6E01333B6660
:102D08003B6E1B78302B04D13B6E01333B660023AE
:102D18003B643B6E1B7887F84F3097F84F30302B69
:102D28002AD997F84F30392B26D80023FB6310E0B7
:102D3800FB6B5A1CFA6307F15002134497F84F20B3
:102D480003F84C2C3B6E01333B663B6E1B7887F8CF
:102D58004F3097F84F302F2B03D997F84F30392B36
:102D6800E6D93A1DFB6B134400221A703B1D0A2159
:102D78001846FFF77FFE786497F84F30253B532BB2
:102D880000F2598101A252F823F000BFE52E000895
:102D98003F3000083F3000083F3000083F3000084F
:102DA8003F3000083F3000083F3000083F3000083F
:102DB8003F3000083F3000083F3000083F3000082F
:102DC8003F3000083F3000083F3000083F3000081F
:102DD8003F3000083F3000083F3000083F3000080F
:102DE8003F3000083F3000083F3000083F300008FF
:102DF8003F3000083F3000083F3000083F300008EF
:102E08003F3000083F3000083F3000083F300008DE
:102E18003F3000083F3000083F3000083F300008CE
:102E28003F3000083F3000083F3000083F300008BE
:102E38003F3000083F3000083F3000083F300008AE
:102E48003F3000083F3000083F3000083F3000089E
:102E58003F3000083F3000083F3000083F3000088E
:102E68003F3000083F3000083F3000083F3000087E
:102E78003F3000083F3000083F3000083F3000086E
:102E88003F300008ED2E0008172F00083F300008DB
:102E9800FD2F00083F3000083F3000083F30000891
:102EA8003F3000083F3000083F3000083F3000083E
:102EB8003F300008792F0008A12F00083F30000894
:102EC8003F300008052F00083F300008512F000848
:102ED8003F3000083F300008D52F00082520FFF7B5
:102EE800FDFCB3E07B6B1A1D7A631B6887F84F30D3
:102EF80097F84F301846FFF7F1FCA7E07B6B1A1DD7
:102F08007A631B68BB63B86BFFF7A4FE9EE07B6B1C
:102F18001A1D7A631B68BB64BB6C002B05DA2D2075
:102F2800FFF7DCFCBB6C5B42BB643B6C07F1100039
:102F380000937B6C0A22B96CFFF718FD07F11003A8
:102F48001846FFF787FE81E07B6B1A1D7A631B68C2
:102F5800BB643B6C07F1100000937B6C0A22B96CD0
:102F6800FFF704FD07F110031846FFF773FE6DE045
:102F78007B6B1A1D7A631B68BB643B6C07F11000FE
:102F880000937B6C0822B96CFFF7F0FC07F1100383
:102F98001846FFF75FFE59E03020FFF79FFC7820C6
:102FA800FFF79CFC7B6B1A1D7A631B68BB643B6C48
:102FB80007F1100000937B6C1022B96CFFF7D6FC68
:102FC80007F110031846FFF745FE3FE07B6B1A1D1B
:102FD8007A631B68BB643B6C07F1100000937B6C41
:102FE8001022B96CFFF7C2FC07F110031846FFF76F
:102FF80031FE2BE07B6B073323F0070303F1080254
:103008007A63D3E900341846214619F071FC034667
:10301800BB64BB6C07EE903AF8EE677A07F11003D1
:10302800B0EE670A1846FFF76BFD07F11003184664
:10303800FFF710FE0AE03B6E1B781846FFF74EFCC0
:1030480004E03B6E1B781846FFF748FC3B6E0133E3
:103058003B663B6E1B78002B7FF446AE00BF5437AF
:10306800BD46BDE8904004B0704700BF0FB490B5AE
:1030780097B002AF07F164037B63B4E13B6E1B7842
:10308800252B40F0A88100237B6401233B643B6E21
:1030980001333B663B6E1B78302B04D13B6E01330A
:1030A8003B6600233B643B6E1B7887F84F3097F8EC
:1030B8004F30302B2AD997F84F30392B26D8002398
:1030C800FB6310E0FB6B5A1CFA6307F150021344D0
:1030D80097F84F2003F84C2C3B6E01333B663B6E50
:1030E8001B7887F84F3097F84F302F2B03D997F874
:1030F8004F30392BE6D93A1DFB6B134400221A7066
:103108003B1D0A211846FFF7B5FC786497F84F3045
:10311800253B532B00F2598101A252F823F000BF3E
:1031280079320008D3330008D3330008D3330008BA
:10313800D3330008D3330008D3330008D33300084F
:10314800D3330008D3330008D3330008D33300083F
:10315800D3330008D3330008D3330008D33300082F
:10316800D3330008D3330008D3330008D33300081F
:10317800D3330008D3330008D3330008D33300080F
:10318800D3330008D3330008D3330008D3330008FF
:10319800D3330008D3330008D3330008D3330008EF
:1031A800D3330008D3330008D3330008D3330008DF
:1031B800D3330008D3330008D3330008D3330008CF
:1031C800D3330008D3330008D3330008D3330008BF
:1031D800D3330008D3330008D3330008D3330008AF
:1031E800D3330008D3330008D3330008D33300089F
:1031F800D3330008D3330008D3330008D33300088F
:10320800D3330008D3330008D3330008D33300087E
:10321800D3330008D333000881320008AB320008EA
:10322800D333000891330008D3330008D3330008A0
:10323800D3330008D3330008D3330008D33300084E
:10324800D3330008D33300080D33000835330008A2
:10325800D3330008D333000899320008D333000869
:10326800E5320008D3330008D33300086933000877
:103278002520FFF745FBB3E07B6B1A1D7A631B68BB
:1032880087F84F3097F84F301846FFF739FBA7E01B
:103298007B6B1A1D7A631B68BB63B86BFFF7F0FC86
:1032A8009EE07B6B1A1D7A631B68BB64BB6C002BAA
:1032B80005DA2D20FFF724FBBB6C5B42BB643B6C3B
:1032C80007F1100000937B6C0A22B96CFFF74EFBE4
:1032D80007F110031846FFF7D3FC81E07B6B1A1D3A
:1032E8007A631B68BB643B6C07F1100000937B6C2E
:1032F8000A22B96CFFF73AFB07F110031846FFF7EB
:10330800BFFC6DE07B6B1A1D7A631B68BB643B6C6A
:1033180007F1100000937B6C0822B96CFFF726FBBD
:1033280007F110031846FFF7ABFC59E03020FFF710
:10333800E7FA7820FFF7E4FA7B6B1A1D7A631B68BB
:10334800BB643B6C07F1100000937B6C1022B96CD6
:10335800FFF70CFB07F110031846FFF791FC3FE05D
:103368007B6B1A1D7A631B68BB643B6C07F110000A
:1033780000937B6C1022B96CFFF7F8FA07F1100381
:103388001846FFF77DFC2BE07B6B073323F0070320
:1033980003F108027A63D3E900341846214619F08C
:1033A800A7FA0346BB64BB6C07EE903AF8EE677A5F
:1033B80007F11003B0EE670A1846FFF7A1FB07F103
:1033C80010031846FFF75CFC0AE03B6E1B781846B2
:1033D800FFF796FA04E03B6E1B781846FFF790FA61
:1033E8003B6E01333B663B6E1B78002B7FF446AE89
:1033F80000BF5437BD46BDE8904004B0704700BFD9
:103408000FB490B597B002AF07F164037B63B4E1E2
:103418003B6E1B78252B40F0A88100237B64012399
:103428003B643B6E01333B663B6E1B78302B04D10B
:103438003B6E01333B6600233B643B6E1B7887F889
:103448004F3097F84F30302B2AD997F84F30392B17
:1034580026D80023FB6310E0FB6B5A1CFA6307F1C4
:103468005002134497F84F2003F84C2C3B6E01335D
:103478003B663B6E1B7887F84F3097F84F302F2B01
:1034880003D997F84F30392BE6D93A1DFB6B134413
:1034980000221A703B1D0A211846FFF7EBFA7864E0
:1034A80097F84F30253B532B00F2598101A252F86F
:1034B80023F000BF0D36000867370008673700089B
:1034C800673700086737000867370008673700085C
:1034D800673700086737000867370008673700084C
:1034E800673700086737000867370008673700083C
:1034F800673700086737000867370008673700082C
:10350800673700086737000867370008673700081B
:10351800673700086737000867370008673700080B
:1035280067370008673700086737000867370008FB
:1035380067370008673700086737000867370008EB
:1035480067370008673700086737000867370008DB
:1035580067370008673700086737000867370008CB
:1035680067370008673700086737000867370008BB
:1035780067370008673700086737000867370008AB
:10358800673700086737000867370008673700089B
:10359800673700086737000867370008673700088B
:1035A80067370008673700086737000815360008CE
:1035B8003F360008673700082537000867370008D6
:1035C800673700086737000867370008673700085B
:1035D800673700086737000867370008A136000812
:1035E800C936000867370008673700082D36000815
:1035F800673700087936000867370008673700081A
:10360800FD3600082520FFF78DF9B3E07B6B1A1D06
:103618007A631B6887F84F3097F84F301846FFF7E2
:1036280081F9A7E07B6B1A1D7A631B68BB63B86BD3
:10363800FFF73CFB9EE07B6B1A1D7A631B68BB643B
:10364800BB6C002B05DA2D20FFF76CF9BB6C5B42D5
:10365800BB643B6C07F1100000937B6C0A22B96CC9
:10366800FFF784F907F110031846FFF71FFB81E005
:103678007B6B1A1D7A631B68BB643B6C07F11000F7
:1036880000937B6C0A22B96CFFF770F907F11003FD
:103698001846FFF70BFB6DE07B6B1A1D7A631B68FE
:1036A800BB643B6C07F1100000937B6C0822B96C7B
:1036B800FFF75CF907F110031846FFF7F7FA59E02E
:1036C8003020FFF72FF97820FFF72CF97B6B1A1DB4
:1036D8007A631B68BB643B6C07F1100000937B6C3A
:1036E8001022B96CFFF742F907F110031846FFF7EB
:1036F800DDFA3FE07B6B1A1D7A631B68BB643B6C89
:1037080007F1100000937B6C1022B96CFFF72EF9BB
:1037180007F110031846FFF7C9FA2BE07B6B073354
:1037280023F0070303F108027A63D3E9003418464B
:10373800214619F0DDF80346BB64BB6C07EE903AEE
:10374800F8EE677A07F11003B0EE670A1846FFF73C
:10375800D7F907F110031846FFF7A8FA0AE03B6EFD
:103768001B781846FFF7DEF804E03B6E1B78184616
:10377800FFF7D8F83B6E01333B663B6E1B78002B96
:103788007FF446AE00BF5437BD46BDE8904004B054
:10379800704700BF80B500AF154B164A1A60144B2E
:1037A8002822DA61124B00229A60114B00225A61DA
:1037B8000F4B00221A610E4B00229A620C4B072213
:1037C800DA620B4B0022DA60094B00221A62084BBE
:1037D8004FF480229A61064B00225A62044B4FF440
:1037E80082725A60024814F015F800BF80BD00BF0D
:1037F800DC5E00200030014080B586B002AF034691
:10380800FB71FB793B7307F1080207F10C01642394
:1038180000930123034814F059FB3B7A18461037EC
:10382800BD4680BDDC5E002080B582B000AF034697
:10383800FB80FB88082B13D0082B04DC012B09D054
:10384800022B0AD00FE0B3F5806F0BD0B3F5005F01
:1038580008D008E0FEF77CF905E0FEF753F902E02E
:1038680000BF00E000BF00BF0837BD4680BD00BFF5
:1038780080B483B000AF78607B6803F108027B688E
:103888005A607B684FF0FF329A607B6803F1080248
:103898007B68DA607B6803F108027B681A617B68E1
:1038A80000221A6000BF0C37BD465DF8047B7047E4
:1038B80080B483B000AF78607B6800221A6100BFD3
:1038C8000C37BD465DF8047B704700BF80B485B0F7
:1038D80000AF786039607B685B68FB603B68FA68BA
:1038E8005A60FB689A683B689A60FB689B683A680C
:1038F8005A60FB683A689A603B687A681A617B6824
:103908001B685A1C7B681A6000BF1437BD465DF8F7
:10391800047B704780B485B000AF786039603B683D
:103928001B68BB60BB68B3F1FF3F03D17B681B69B1
:10393800FB600CE07B680833FB6002E0FB685B68B7
:10394800FB60FB685B681A68BB689A42F6D9FB683B
:103958005A683B685A603B685B683A689A603B689B
:10396800FA689A60FB683A685A603B687A681A6134
:103978007B681B685A1C7B681A6000BF1437BD46F9
:103988005DF8047B704700BF80B485B000AF7860F5
:103998007B681B69FB607B685B687A6892689A60E1
:1039A8007B689B687A6852685A60FB685A687B68CB
:1039B8009A4203D17B689A68FB685A607B68002248
:1039C8001A61FB681B685A1EFB681A60FB681B6853
:1039D80018461437BD465DF8047B704780B584B03F
:1039E80000AF786039607B68FB60FB68002B02D110
:1039F80002F0A8FAFEE702F06BFAFB681A68FB68A7
:103A0800DB6BF968096C01FB03F31A44FB685A6025
:103A1800FB6800229A63FB681A68FB689A60FB6877
:103A28001A68FB68DB6B013BF968096C01FB03F35F
:103A38001A44FB68DA60FB684FF0FF325A64FB688F
:103A48004FF0FF329A643B68002B0ED1FB681B696C
:103A5800002B14D0FB681033184601F09FFC034676
:103A6800012B0CD102F022FA09E0FB68103318464A
:103A7800FFF7FEFEFB6824331846FFF7F9FE02F055
:103A880047FA012318461037BD4680BD80B588B077
:103A980000AFF860B9601346FB710023FB61FB6857
:103AA800002B2AD0542002F0F3FAB861BB69002B2E
:103AB80023D0FB68BA6802FB03F301337B617869A2
:103AC80002F0E6FA0246BB691A60BB691B68002B64
:103AD80010D0BB69FA68DA63BB69BA681A64012155
:103AE800B869FFF77BFFBB69FA7983F85020BB6997
:103AF800FB6102E0B86902F011FBFB69002B02D1FF
:103B080002F020FAFEE7FB6918462037BD4680BD63
:103B180080B584B000AF0346FB71542002F0B8FAB8
:103B2800F860FB68002B30D0FB6800225A60FB6805
:103B380000221A60FB6800229A60FB680022DA60A3
:103B4800FB6800229A63FB680122DA63FB680022A3
:103B58001A64FB684FF0FF325A64FB684FF0FF327B
:103B68009A64FB68FA7983F85020FB68103318468A
:103B7800FFF77EFEFB6824331846FFF779FE002323
:103B880000220021F86800F091F8FB68002B02D1B0
:103B980002F0D8F9FEE7FB6818461037BD4680BD2D
:103BA80090B585B000AF78607B68BB60BB68002BC0
:103BB80002D102F0C7F9FEE7BB685C6801F062FF5A
:103BC80003469C4211D1BB68DB685A1EBB68DA60A9
:103BD800BB68DB68002B05D1002300220021B868F0
:103BE80000F064F80123FB6001E00023FB60FB6840
:103BF80018461437BD4690BD90B585B000AF7860C3
:103C080039607B68BB60BB68002B02D102F09AF96F
:103C1800FEE7BB685C6801F035FF03469C4207D1AC
:103C2800BB68DB685A1CBB68DA600123FB600EE0E6
:103C380000233A680021B86800F070F9F860FB6862
:103C4800012B04D1BB68DB685A1CBB68DA60FB68CF
:103C580018461437BD4690BD80B584B000AF786073
:103C680039607B68002B02D102F06CF9FEE73A68F4
:103C78007B689A4202D902F065F9FEE70222002128
:103C88007868FFF703FFF860FB68002B02D0FB6839
:103C98003A689A63FB68002B02D102F053F9FEE7F9
:103CA800FB6818461037BD4680BD00BF80B58AB096
:103CB80000AFF860B9607A603B6000237B62FB6804
:103CC8003B623B6A002B02D102F03CF9FEE7BB687D
:103CD800002B03D13B6A1B6C002B01D1012300E0B0
:103CE8000023002B02D102F02DF9FEE73B68022BDE
:103CF80003D13B6ADB6B012B01D1012300E00023D8
:103D0800002B02D102F01EF9FEE701F0CBFE0346BC
:103D1800002B02D17B68002B01D1012300E0002396
:103D2800002B02D102F00EF9FEE702F0D1F83B6A4F
:103D38009A6B3B6ADB6B9A4202D33B68022B1DD11C
:103D48003A68B968386A00F0E7FAF8613B6A5B6A72
:103D5800002B0AD03B6A2433184601F01FFB0346A8
:103D6800012B07D102F0A2F804E0FB69002B01D077
:103D780002F09CF802F0CCF8012356E07B68002B97
:103D880003D102F0C5F800234FE07B6A002B06D16F
:103D980007F11403184601F0B3FB01237B6202F01C
:103DA800B7F800F0FBFF02F093F83B6A5B6CB3F1E5
:103DB800FF3F02D13B6A00225A643B6A9B6CB3F115
:103DC800FF3F02D13B6A00229A6402F0A1F83A1D33
:103DD80007F114031146184601F0ACFB0346002B0B
:103DE8001DD1386A00F0A4FB0346002B11D03B6AB2
:103DF80010337A681146184601F030FA386A00F034
:103E08001DFB00F0D9FF0346002B8ED102F04EF8BF
:103E18008BE7386A00F012FB00F0CEFF85E7386ABE
:103E280000F00CFB00F0C8FF002318462837BD46F9
:103E380080BD00BF80B588B000AFF860B9607A6017
:103E48003B60FB68BB61BB69002B02D102F07AF8CA
:103E5800FEE7BB68002B03D1BB691B6C002B01D1AB
:103E6800012300E00023002B02D102F06BF8FEE7EB
:103E78003B68022B03D1BB69DB6B012B01D101230A
:103E880000E00023002B02D102F05CF8FEE702F00C
:103E9800CDF802F057F87861BB699A6BBB69DB6BA8
:103EA8009A4202D33B68022B2DD13A68B968B869A7
:103EB80000F032FA0346002B05D07B68002B02D0B5
:103EC8007B6801221A60BB699B6CB3F1FF3F12D17A
:103ED800BB695B6A002B13D0BB692433184601F019
:103EE8005DFA0346002B0BD07B68002B08D07B685B
:103EF80001221A6004E0BB699B6C5A1CBB699A6476
:103F08000123FB6101E00023FB61786902F024F8DA
:103F1800FB6918462037BD4680BD00BF80B58AB012
:103F280000AFF860B9607A603B6000237B62FB6891
:103F38003B623B6A002B02D102F004F8FEE7BB6843
:103F4800002B03D13B6A1B6C002B01D1012300E03D
:103F58000023002B02D101F0F5FFFEE701F0A2FDDE
:103F68000346002B02D17B68002B01D1012300E01E
:103F78000023002B02D101F0E5FFFEE701F0A8FFC6
:103F88003B6A9B6B002B3BD03B6ADB68FB61B968E3
:103F9800386A00F02DFA3B68002B1CD13B6A9B6BFA
:103FA8005A1E3B6A9A633B6A1B68002B04D101F0D6
:103FB80091FE02463B6A5A603B6A1B69002B1BD084
:103FC8003B6A1033184601F0E9F90346012B13D177
:103FD80001F06CFF10E03B6AFA69DA603B6A5B6AE1
:103FE800002B09D03B6A2433184601F0D7F9034661
:103FF800002B01D001F05AFF01F08AFF012364E091
:104008007B68002B03D101F083FF00235DE07B6A0E
:10401800002B06D107F11403184601F071FA0123A9
:104028007B6201F075FF00F0B9FE01F051FF3B6AB9
:104038005B6CB3F1FF3F02D13B6A00225A643B6AD2
:104048009B6CB3F1FF3F02D13B6A00229A6401F0F6
:104058005FFF3A1D07F114031146184601F06AFA8A
:104068000346002B2BD1386A00F034FA0346002BA4
:104078001FD03B6A1B68002B08D101F029FF3B6A5F
:104088005B68184601F02CFD01F042FF3B6A2433BF
:104098007A681146184601F0E1F8386A00F0CEF95E
:1040A80000F08AFE0346002B7FF468AF01F0FEFEA5
:1040B80064E7386A00F0C2F900F07EFE5EE7386A0D
:1040C80000F0BCF900F078FE002318462837BD46FA
:1040D80080BD00BF80B588B000AFF860B9607A6075
:1040E800FB68BB61BB69002B02D101F02BFFFEE727
:1040F800BB68002B03D1BB691B6C002B01D10123CA
:1041080000E00023002B02D101F01CFFFEE701F0C4
:104118008DFF01F017FF7861BB699B6B002B28D0DE
:10412800B968B86900F064F9BB699B6B5A1EBB6932
:104138009A63BB695B6CB3F1FF3F12D1BB691B6922
:10414800002B13D0BB691033184601F027F903463A
:10415800002B0BD07B68002B08D07B6801221A60EB
:1041680004E0BB695B6C5A1CBB695A640123FB61A0
:1041780001E00023FB61786901F0EEFEFB69184657
:104188002037BD4680BD00BF80B586B000AF7860DF
:1041980039607B683B613B69002B02D101F0D2FE9C
:1041A800FEE73B68002B03D13B691B6C002B01D158
:1041B800012300E00023002B02D101F0C3FEFEE73B
:1041C80001F034FF01F0BEFEF8603B699B6B002BE9
:1041D8000CD03B69DB68BB603968386900F008F9C6
:1041E8003B69BA68DA6001237B6101E000237B61E7
:1041F800F86801F0B1FE7B6918461837BD4680BDE6
:1042080080B584B000AF78607B68002B02D101F0E4
:1042180099FEFEE701F05CFE7B689B6BFB6001F09A
:1042280077FEFB6818461037BD4680BD80B584B060
:1042380000AF78607B68FB60FB68002B02D101F05F
:1042480081FEFEE701F044FEFB68DA6BFB689B6BBE
:10425800D31ABB6001F05CFEBB6818461037BD4638
:1042680080BD00BF80B584B000AF78607B68002B4C
:1042780002D101F067FEFEE77B689B6BFB60FB6881
:1042880018461037BD4680BD80B584B000AF786051
:104298007B68FB60FB68002B02D101F053FEFEE750
:1042A800F86800F09FF9FB681B68002B04D0FB68D6
:1042B8001B68184601F032FFF86801F02FFF00BFB5
:1042C8001037BD4680BD00BF80B483B000AF7860B2
:1042D8007B68DB6C18460C37BD465DF8047B70477D
:1042E80080B483B000AF786039607B683A68DA647C
:1042F80000BF0C37BD465DF8047B704780B483B0BF
:1043080000AF78607B6893F8503018460C37BD468C
:104318005DF8047B704700BF80B586B000AFF860D9
:10432800B9607A6000237B61FB681B6C002B0DD1A0
:10433800FB681B68002B50D1FB685B68184601F0CE
:1043480045FC7861FB6800225A6046E07B68002BD8
:1043580019D1FB689868FB681B6C1A46B96818F095
:10436800E7FAFB689A68FB681B6C1A44FB689A605A
:10437800FB689A68FB685B689A422ED3FB681A68E8
:10438800FB689A6029E0FB68D868FB681B6C1A46D2
:10439800B96818F0CDFAFB68DA68FB681B6C5B42F9
:1043A8001A44FB68DA60FB68DA68FB681B689A42A3
:1043B80007D2FB685A68FB681B6C5B421A44FB68AF
:1043C800DA607B68022B08D1FB689B6B002B04D05A
:1043D800FB689B6B5A1EFB689A63FB689B6B5A1CB5
:1043E800FB689A637B6918461837BD4680BD00BFD5
:1043F80080B582B000AF786039607B681B6C002B99
:1044080018D07B68DA687B681B6C1A447B68DA60B2
:104418007B68DA687B685B689A4203D37B681A68B2
:104428007B68DA607B68D9687B681B6C1A463868D9
:1044380018F07EFA00BF0837BD4680BD80B582B04F
:1044480000AF786001F044FD12E07B685B6A002BE6
:1044580013D07B682433184600F0A0FF0346002BD6
:1044680001D001F0B7F87B689B6C5A1E7B689A6490
:104478007B689B6C002BE8DC00E000BF7B684FF09A
:10448800FF329A6401F044FD01F022FD12E07B68DE
:104498001B69002B13D07B681033184600F07EFF91
:1044A8000346002B01D001F095F87B685B6C5A1E1F
:1044B8007B685A647B685B6C002BE8DC00E000BF1B
:1044C8007B684FF0FF325A6401F022FD00BF0837C5
:1044D800BD4680BD80B584B000AF786001F0F8FCBF
:1044E8007B689B6B002B02D10123FB6001E000235A
:1044F800FB6001F00DFDFB6818461037BD4680BD16
:1045080080B584B000AF78607B68002B02D101F0E1
:1045180019FDFEE77B689B6B002B02D10123FB6032
:1045280001E00023FB60FB6818461037BD4680BDDC
:1045380080B584B000AF786001F0CAFC7B689A6BE4
:104548007B68DB6B9A4202D10123FB6001E0002308
:10455800FB6001F0DDFCFB6818461037BD4680BDE6
:1045680080B584B000AF78607B68002B02D101F081
:10457800E9FCFEE77B689A6B7B68DB6B9A4202D1A9
:104588000123FB6001E00023FB60FB68184610373D
:10459800BD4680BD80B485B000AF78603960002327
:1045A800FB6014E00E4AFB6852F83330002B0BD145
:1045B8000B49FB683A6841F83320094AFB68DB007D
:1045C80013447A685A6005E0FB680133FB60FB68B6
:1045D800072BE7D900BF1437BD465DF8047B704749
:1045E800345F002080B485B000AF78600023FB60A2
:1045F80010E00D4AFB68DB0013445A687B689A4256
:1046080005D1094AFB68002142F8331005E0FB6830
:104618000133FB60FB68072BEBD900BF1437BD469D
:104628005DF8047B704700BF345F002080B58AB016
:1046380002AFF860B9603B601346FB80FB68002B53
:1046480002D101F07FFCFEE7BB6A132B02D901F00F
:1046580079FCFEE7FB88396B184601F003F9B8616D
:10466800BB69002B71D0BB691A6BFB8803F18043CF
:10467800013B9B0013447B617B6923F007037B614B
:104688007B6903F00703002B02D001F05BFCFEE717
:10469800FB8800937B6BBA6AB968B86900F0E2FFDF
:1046A8003A68F968786901F029FB0246BB691A6023
:1046B800FB6A002B02D0FB6ABA691A6001F008FC99
:1046C8002D4B1B6801332C4A13602C4B1B68002BA5
:1046D80009D12A4ABB691360274B1B68012B0FD1EC
:1046E80001F00EF80CE0264B1B68002B08D1234B79
:1046F8001B68DA6ABB6A9A4202D8204ABB6913600F
:10470800204B1B6801331F4A13601E4B1A68BB6994
:104718005A64BB69DB6A01229A401B4B1B6813432E
:10472800194A1360BB69DA6A13469B0013449B005D
:10473800164A1A44BB69043319461046FFF7C6F8EF
:104748000123FB6101F0E4FB02E04FF0FF33FB6162
:10475800FB69012B0BD10A4B1B68002B07D0074BB9
:104768001B68DA6ABB6A9A4201D201F09FFBFB69B7
:1047780018462037BD4680BD240C0020200A0020A2
:10478800300C0020400C00202C0C0020240A0020B3
:1047980080B584B000AF786001F09AFB7B68002B8D
:1047A80002D12D4B1B6800E07B68FB60FB6804337B
:1047B8001846FFF7E9F80346002B15D1FB68DA6ABB
:1047C800264913469B0013449B000B441B68002B8F
:1047D8000AD1FB68DB6A012202FA03F3DA43204BB1
:1047E8001B6813401E4A1360FB689B6A002B04D0A9
:1047F800FB6818331846FFF7C7F8FB6804331946F7
:104808001848FFF763F8184B1B680133164A136002
:10481800164B1B680133154A136001F079FB144BE2
:104828001B68002B14D00C4B1B68FA689A4209D1FC
:10483800104B1B68002B02D001F084FBFEE701F04F
:1048480035FB05E001F044FB01F0F6F801F060FBF0
:1048580000BF1037BD4680BD200A0020240A002072
:104868002C0C0020F80B00200C0C0020400C002021
:10487800300C0020440C002080B584B000AF786074
:104888000023FB607B68002B28D0194B1B68002B8A
:1048980002D001F057FBFEE700F080FA154B1A68CA
:1048A8007B681344BB60144B1B6804331846FFF73E
:1048B8006BF80346002B0BD10F4B1B68DB6A0122F8
:1048C80002FA03F3DA430D4B1B6813400B4A1360DB
:1048D800B86800F091FF00F06FFAF860FB68002BF1
:1048E80001D101F0E3FA00BF1037BD4680BD00BF1B
:1048F800440C0020280C0020200A00202C0C00204A
:1049080080B584B000AF786001F0E2FA7B68002BD4
:1049180002D1074B1B6800E07B68FB60FB68DB6A21
:10492800BB6001F0F5FABB6818461037BD4680BD7C
:10493800200A002080B586B000AF78603960002377
:104948007B613B68132B02D901F0FCFAFEE73B6858
:10495800132B01D913233B6001F0BAFA7B68002BB3
:1049680002D1404B1B6800E07B683B613B69DB6C14
:10497800FB60FA683B689A426ED03A68FB689A42D4
:104988000DD9384B1B683A699A420FD0354B1B68D2
:10499800DA6A3B689A4209D801237B6106E0314B09
:1049A8001B683A699A4201D101237B613B69DB6A42
:1049B800BB603B69DA6C3B69DB6A9A4202D13B69AE
:1049C8003A68DA623B693A68DA643B699B69002BAA
:1049D80004DB3B68C3F114023B699A613B6959697E
:1049E800BA6813469B0013449B001F4A134499421C
:1049F80001D1012300E00023002B28D03B690433B8
:104A08001846FEF7C1FF0346002B09D10122BB68F7
:104A180002FA03F3DA43154B1B681340134A136079
:104A28003B69DB6A01229A40104B1B6813430F4A0B
:104A380013603B69DA6A13469B0013449B000A4AD9
:104A48001A443B69043319461046FEF73FFF7B6959
:104A5800012B01D101F02AFA01F05AFA00BF1837E8
:104A6800BD4680BD200A0020240A00202C0C00200E
:104A780080B584B000AF786001F02AFA7B68002B1B
:104A880002D1314B1B6800E07B68FB60FB68043394
:104A98001846FEF779FF0346002B15D1FB68DA6A42
:104AA8002A4913469B0013449B000B441B68002BA8
:104AB8000AD1FB68DB6A012202FA03F3DA43244BCA
:104AC8001B681340224A1360FB689B6A002B04D0C2
:104AD800FB6818331846FEF757FFFB68043319467E
:104AE8001C48FEF7F3FE01F013FA174B1B68FA682F
:104AF8009A421AD1184B1B68002B09D0174B1B6818
:104B0800002B02D001F01EFAFEE701F0CFF916E003
:104B1800104B1A68124B1B689A4203D10A4B0022A9
:104B28001A600CE000F038FB09E00B4B1B68002B07
:104B380005D001F0CDF900F07FFF01F0E9F900BFE1
:104B48001037BD4680BD00BF200A0020240A00207F
:104B58002C0C0020100C0020300C0020440C0020ED
:104B6800240C002080B584B000AF78600023FB607F
:104B78007B68BB607B68002B02D101F0E3F9FEE79C
:104B8800BB685B690E4A934201D1012300E0002310
:104B9800002B0FD0BB689B6A0A4A93420AD0BB68B5
:104BA8009B6A002B01D1012300E00023002B01D0D8
:104BB8000123FB60FB6818461037BD4680BD00BF67
:104BC800100C0020E40B002080B584B000AF7860A2
:104BD8007B68FB607B68002B02D101F0B3F9FEE72C
:104BE800FB68002B33D01C4B1B68FA689A422ED006
:104BF80001F06EF9F868FFF7B5FF0346012B24D1E1
:104C0800FB6804331846FEF7BFFEFB68DB6A012227
:104C18009A40124B1B681343104A1360FB68DA6A08
:104C280013469B0013449B000D4A1A44FB68043347
:104C380019461046FEF74AFEFB68DA6A064B1B68FF
:104C4800DB6A9A4201D301F031F901F061F900BF42
:104C58001037BD4680BD00BF200A00202C0C002064
:104C6800240A002080B586B000AF786000237B61FD
:104C78007B683B617B68002B02D101F063F9FEE79A
:104C880001F0D4F901F05EF9F8603869FFF76AFFBE
:104C98000346012B2FD11C4B1B68002B25D13B69E8
:104CA800DA6A1A4B1B68DB6A9A4201D301237B61DB
:104CB8003B6904331846FEF767FE3B69DB6A01224D
:104CC8009A40134B1B681343114A13603B69DA6A15
:104CD80013469B0013449B000E4A1A443B69043355
:104CE80019461046FEF7F2FD05E03B6918331946F0
:104CF8000948FEF7EBFDF86801F02EF97B691846C4
:104D08001837BD4680BD00BF440C0020200A002093
:104D18002C0C0020240A0020E40B002080B586B06B
:104D280004AF00230393002302930023019300237D
:104D38000093002380220E490E48FFF777FC786025
:104D48007B68012B0AD101F0FDF80B4B01221A6098
:104D58000A4B00221A6001F033F805E07B68002B4B
:104D680002D101F0EFF8FEE700BF0837BD4680BD6D
:104D78003CD6010849560008300C0020280C0020B9
:104D880080B500AF01F0DEF8034B00221A6001F095
:104D98007FF800BF80BD00BF300C002080B400AF9A
:104DA800044B1B680133034A136000BFBD465DF81E
:104DB800047B7047440C002080B582B000AF00230C
:104DC8007B60374B1B68002B02D101F0BBF8FEE774
:104DD80001F07EF8324B1B68013B314A1360304BBF
:104DE8001B68002B55D12F4B1B68002B51D02EE090
:104DF8002D4BDB68DB683B603B6818331846FEF7D1
:104E0800C3FD3B6804331846FEF7BEFD3B68DB6A0A
:104E180001229A40254B1B681343244A13603B68C0
:104E2800DA6A13469B0013449B00214A1A443B68E4
:104E3800043319461046FEF749FD3B68DA6A1D4BF4
:104E48001B68DB6A9A4202D31B4B01221A60164B7D
:104E58001B68002BCCD1194B1B68002B11D00CE020
:104E680000F0DCF80346002B02D0134B01221A6035
:104E7800124B1B68013B114A1360104B1B68002B37
:104E8800EED10D4B1B68012B03D101237B6001F090
:104E98000DF801F03DF87B6818460837BD4680BD1F
:104EA800440C0020240C0020E40B00202C0C0020D3
:104EB800240A0020200A0020380C0020340C00208E
:104EC80080B582B000AF01F003F8054B1B687B602A
:104ED80001F01EF87B6818460837BD4680BD00BF44
:104EE800280C002080B582B000AF01F09FF801F0D7
:104EF80029F87860054B1B683B60786801F02CF84E
:104F08003B6818460837BD4680BD00BF280C002006
:104F180080B400AF034B1B681846BD465DF8047BA0
:104F2800704700BF240C002080B586B000AFF86041
:104F3800B9607A6000237B6114233B61FFF72EFF81
:104F4800304B1B68BA689A4254D33B69013B3B61BA
:104F58007B695B01FA68D0183A6913469B001344D1
:104F68009B00294A13440122194600F0ADFC024671
:104F78007B6913447B613B69002BE6D17B695B014C
:104F8800FA68D018214B1B680222194600F09CFCD5
:104F980002467B6913447B617B695B01FA68D01820
:104FA8001B4B1B680222194600F08EFC02467B69E7
:104FB80013447B617B695B01FA6813440422154939
:104FC800184600F081FC02467B6913447B617B69CB
:104FD8005B01FA68134403220F49184600F074FC79
:104FE80002467B6913447B617B68002B02D07B6897
:104FF80000221A60FFF7E0FE7B6918461837BD46A5
:1050080080BD00BF240C0020240A0020DC0B0020F7
:10501800E00B0020F80B0020100C002080B586B0B3
:1050280000AF00237B61514B1B68002B40F08C8044
:105038004F4B1B6801334E4A13604D4B1B683B6155
:105048003B69002B18D14B4B1B681B68002B02D007
:1050580000F078FFFEE7474B1B68FB60464B1B6878
:10506800444A1360444AFB681360444B1B6801338D
:10507800424A136000F0E0FC414B1B683A699A42CF
:105088004DD33C4B1B681B68002B01D1012300E06A
:105098000023002B04D03A4B4FF0FF321A603EE059
:1050A800344B1B68DB68DB68BB60BB685B687B6094
:1050B8003A697B689A4203D2314A7B6813602EE0D2
:1050C800BB6804331846FEF75FFCBB689B6A002B7D
:1050D80004D0BB6818331846FEF756FCBB68DB6A79
:1050E80001229A40274B1B681343264A1360BB686A
:1050F800DA6A13469B0013449B00234A1A44BB6890
:10510800043319461046FEF7E1FBBB68DA6A1F4B09
:105118001B68DB6A9A42B4D301237B61B1E71B4B5E
:105128001B68DA6A184913469B0013449B000B441A
:105138001B68012B01D901237B61154B1B68002BD0
:1051480009D1FBF7E3FC06E0114B1B680133104A59
:105158001360FBF7DBFC0F4B1B68002B01D001230E
:105168007B617B6918461837BD4680BD440C00201A
:10517800280C0020DC0B0020E00B00203C0C002059
:10518800540000202C0C0020240A0020200A0020B3
:10519800340C0020380C002080B584B000AF2A4BB6
:1051A8001B68002B03D0294B01221A6048E0274BCB
:1051B80000221A60264B1B681A68254B1B681B6B5C
:1051C8009A4208D8224B1A68214B1B683433194677
:1051D8001046FBF78DFC1F4B1B687B607B68B3FA9E
:1051E80083F3FB70FB78C3F11F03FB601A49FA686D
:1051F80013469B0013449B000B441B68002B02D1F1
:1052080000F0A0FEFEE7FA6813469B0013449B00DB
:10521800114A1344BB60BB685B685A68BB685A6034
:10522800BB685A68BB6808339A4204D1BB685B689C
:105238005A68BB685A60BB685B68DB68044A1360DD
:1052480000BF1037BD4680BD440C0020380C00203C
:10525800200A00202C0C0020240A002080B584B0ED
:1052680000AF786039607B68002B02D100F06AFEDD
:10527800FEE71A4B1B68183319467868FEF74AFB95
:10528800164B1B6804331846FEF77EFB0346002BBB
:105298000BD1124B1B68DB6A012202FA03F3DA43D3
:1052A8000F4B1B6813400E4A13603B68B3F1FF3F76
:1052B80007D10A4B1B68043319460A48FEF706FB58
:1052C80007E0094B1A683B681344FB60F86800F074
:1052D80093FA00BF1037BD4680BD00BF200A0020EA
:1052E8002C0C0020100C0020280C002080B586B063
:1052F80000AFF860B9607A60FB68002B02D100F05B
:1053080021FEFEE7204B1B68002B02D100F01AFE9D
:10531800FEE71E4B1B68BA6842F000429A611B4BBD
:105328001B6818331946F868FEF7D0FA174B1B6844
:1053380004331846FEF728FB0346002B0BD1134B0A
:105348001B68DB6A012202FA03F3DA43104B1B687D
:1053580013400F4A13607B68B3F1FF3F07D10B4B33
:105368001B68043319460B48FEF7B0FA07E00A4BEE
:105378001A687B6813447B61786900F03DFA00BFC6
:105388001837BD4680BD00BF440C0020200A00200D
:105398002C0C0020100C0020280C002080B584B0B4
:1053A80000AF78607B68DB68DB68BB60BB68002B9C
:1053B80002D100F0C7FDFEE7BB6818331846FEF7B8
:1053C800E3FA1D4B1B68002B1CD1BB68043318463D
:1053D800FEF7DAFABB68DB6A01229A40174B1B68B2
:1053E8001343164A1360BB68DA6A13469B001344DA
:1053F8009B00134A1A44BB68043319461046FEF74B
:1054080065FA05E0BB68183319460E48FEF75EFAE0
:10541800BB68DA6A0C4B1B68DB6A9A4205D9012320
:10542800FB600A4B01221A6001E00023FB60FB6865
:1054380018461037BD4680BD440C00202C0C0020B7
:10544800240A0020E40B0020200A0020380C002049
:1054580080B584B000AF78603960244B1B68002B9E
:1054680002D100F06FFDFEE73B6843F000427B6825
:105478001A607B68DB68BB60BB68002B02D100F058
:1054880061FDFEE77868FEF77FFABB6804331846CB
:10549800FEF77AFABB68DB6A01229A40144B1B6854
:1054A8001343134A1360BB68DA6A13469B0013441C
:1054B8009B00104A1A44BB68043319461046FEF78D
:1054C80005FABB68DA6A0C4B1B68DB6A9A4205D995
:1054D8000123FB60094B01221A6001E00023FB60F5
:1054E800FB6818461037BD4680BD00BF440C00203D
:1054F8002C0C0020240A0020200A0020380C002050
:1055080080B582B000AF78607B68002B02D100F0D4
:1055180019FDFEE7054B1A687B681A60044B1A6888
:105528007B685A6000BF0837BD4680BD3C0C002030
:10553800280C002080B584B000AF786039607B68A3
:10554800002B02D100F0FEFCFEE73B68002B02D1E5
:1055580000F0F8FCFEE700F0BBFC1C4B1B68BB60CE
:105568003B681B68B3F1FF3F02D10023FB6026E0D4
:105578007B681A68164B1B689A4207D07B685A6882
:10558800BB689A4202D80123FB6018E07B685B681D
:10559800BA68D21A3B681B689A420ED23B681A68EE
:1055A8007B685968BB68CB1A1A443B681A607868EC
:1055B800FFF7A6FF0023FB6001E00123FB6000F07A
:1055C800A7FCFB6818461037BD4680BD280C002094
:1055D8003C0C002080B400AF034B01221A6000BFCE
:1055E800BD465DF8047B7047380C002080B485B058
:1055F80000AF78607B68002B05D07B68BB60BB6818
:105608009B6CFB6001E00023FB60FB6818461437C5
:10561800BD465DF8047B704780B485B000AF786004
:1056280039607B68002B04D07B68FB60FB683A68B4
:105638009A6400BF1437BD465DF8047B704700BF0D
:1056480080B582B000AF786000F09AF8044B1B6810
:10565800012B01D900F02AFCFBF750FAF4E700BF50
:10566800240A002080B586B000AFF860B9607A607F
:105678003B6000237B6112E0BA687B6913441978A8
:10568800FA687B69134434330A461A70BA687B692E
:1056980013441B78002B06D07B6901337B617B693F
:1056A8000F2BE9D900E000BFFB68002283F84320F4
:1056B8007B68132B01D913237B60FB687A68DA6255
:1056C800FB687A68DA64FB6800221A65FB680433B1
:1056D8001846FEF7EDF8FB6818331846FEF7E8F8A9
:1056E800FB68FA681A617B68C3F11402FB689A6167
:1056F800FB68FA685A6200BF1837BD4680BD00BF14
:1057080080B582B000AF00237B600CE07A68134656
:105718009B0013449B00124A13441846FEF7A8F84E
:105728007B6801337B607B68132BEFD90D48FEF74C
:105738009FF80D48FEF79CF80C48FEF799F80C48BE
:10574800FEF796F80B48FEF793F80B4B054A1A60DC
:105758000A4B054A1A6000BF0837BD4680BD00BF26
:10576800240A0020B40B0020C80B0020E40B002002
:10577800F80B0020100C0020DC0B0020E00B0020B0
:1057880080B582B000AF28E0FFF708FB174B1B6815
:10579800002B0CBF01230023DBB27B60FFF70CFB5F
:1057A8007B68002B19D100F093FB104BDB68DB689A
:1057B8003B603B6804331846FEF7E6F80C4B1B6861
:1057C800013B0B4A13600B4B1B68013B094A1360F2
:1057D80000F09EFB386800F01FF9064B1B68002B91
:1057E800D2D100BF0837BD4680BD00BFF80B0020EE
:1057F800240C00200C0C002080B582B000AF78602B
:10580800134B1B687A685A60124B1B687A689A4275
:1058180009D2114B1A680E4B1B68043319461046FF
:10582800FEF778F810E00D4B1A68094B1B68043333
:1058380019461046FEF76EF8094B1B687A689A42BB
:1058480002D2074A7B68136000BF0837BD4680BD97
:10585800200A0020280C0020E00B0020DC0B002090
:105868005400002080B584B000AF03463960FB8047
:10587800542000F00DFCF860FB68002B1ED03B683C
:10588800002B06D1FB889B00184600F001FC03465C
:1058980000E03B68FA681363FB681B6B002B05D1BB
:1058A800F86800F03BFC0023FB6007E0FB68186B1E
:1058B800FB889B001A46A52117F0FCF8FB681846E0
:1058C8001037BD4680BD00BF90B58BB000AFF86003
:1058D800B9601346FB7100237B62BB681B68002B11
:1058E80078D0BB683B623B6A5B685A683B6A5A601F
:1058F8003B6A5A683B6A08339A4204D13B6A5B6840
:105908005A683B6A5A603B6A5B68DB68FB61BB6844
:10591800BB61BB695B685A68BB695A60BB695A68F6
:10592800BB6908339A4204D1BB695B685A68BB6992
:105938005A60BB695B68DB687B617B6A5B01FA68FC
:1059480013447A691A607B6A5B01FA6813447A69BE
:1059580034325A607B6A5B01FA6813447A69526C84
:105968009A607B6A5B01FA681344FA791A737B6A56
:105978005B01FA6813447A69D26A1A61FB79032BCE
:1059880009D17B699B6A002B05D07B6A5B01FA68A9
:10599800134402221A737B6A5B01FA6813447A691A
:1059A800D26C5A617B6A5B01FA68134400229A61DF
:1059B8007B6A5B01FA68D4187B691B6B184600F098
:1059C8000FF80346A3837B6A01337B627A69FB691C
:1059D8009A429CD17B6A18462C37BD4690BD00BFC1
:1059E80080B485B000AF78600023FB6005E07B6879
:1059F80001337B60FB680133FB607B681B78A52B58
:105A0800F5D0FB689B08FB60FB689BB2184614370F
:105A1800BD465DF8047B704780B582B000AF786002
:105A28007B681B6B184600F079FB786800F076FB02
:105A380000BF0837BD4680BD80B483B000AF0F4BB0
:105A48001B681B68002B01D1012300E00023002BF9
:105A580004D00B4B4FF0FF321A6008E0074B1B686D
:105A6800DB68DB687B607B685B68054A136000BFA6
:105A78000C37BD465DF8047B704700BFDC0B002087
:105A88005400002080B483B000AF054B1B687B60D6
:105A98007B6818460C37BD465DF8047B704700BF2D
:105AA800200A002080B483B000AF0B4B1B68002B8A
:105AB80002D101237B6008E0084B1B68002B02D150
:105AC80002237B6001E000237B607B6818460C376B
